:100000000C9460000C9488000C9488000C94880078
:100010000C9488000C9488000C9488000C94880040
:100020000C9488000C9488000C9488000C94E003D5
:100030000C9488000C9488000C9488000C94880020
:100040000C943E030C9488000C94AE030C9488032B
:100050000C9488000C9488000C9488000C94880000
:100060000C9488000C9488002C002C002C000000BC
:100070000008000201000003040700000000000067
:10008000000000000000250028002B0000000000F8
:10009000240027002A0004040404040404040202C7
:1000A00002020202030303030303010204081020F7
:1000B00040800102040810200102040810206B0691
:1000C00011241FBECFEFD8E0DEBFCDBF11E0A0E00E
:1000D000B1E0E4ECF4E102C005900D92AC31B1075F
:1000E000D9F721E0ACE1B1E001C01D92A53DB20716
:1000F000E1F710E0C0E6D0E004C02197FE010E94C5
:100100003509CF35D107C9F70E9408070C94600A5A
:100110000C94000090E0FC01E655FF4F24918A56B4
:100120009F4FFC018491882399F090E0880F991FDC
:10013000FC01E457FF4FA591B491FC01EE57FF4F2E
:10014000859194918FB7F894EC91E22BEC938FBF4B
:10015000089590E0FC01E259FF4F2491FC01E6551F
:10016000FF4F3491FC01EA56FF4FE491EE23C9F0B2
:10017000222339F0233001F1A8F4213019F1223083
:1001800029F1F0E0EE0FFF1FEE57FF4FA591B4915C
:100190008FB7F894EC91611126C030953E233C93C3
:1001A0008FBF08952730A9F02830C9F0243049F7CF
:1001B000809180008F7D03C0809180008F77809335
:1001C0008000DFCF84B58F7784BDDBCF84B58F7D92
:1001D000FBCF8091B0008F778093B000D2CF809119
:1001E000B0008F7DF9CF3E2BDACF3FB7F8948091E6
:1001F000210190912201A0912301B091240126B503
:10020000A89B05C02F3F19F00196A11DB11D3FBF4E
:10021000BA2FA92F982F8827BC01CD01620F711D1D
:10022000811D911D42E0660F771F881F991F4A9517
:10023000D1F708958F929F92AF92BF92CF92DF92A3
:10024000EF92FF924B015C010E94F5006B017C0173
:100250000E94F5006C197D098E099F09683E734064
:1002600081059105A8F321E0821A9108A108B1083F
:1002700088EEC80E83E0D81EE11CF11C81149104A5
:10028000A104B10429F7FF90EF90DF90CF90BF90C9
:10029000AF909F908F900895EF92FF920F931F93CE
:1002A000CF93DF938C017B01D0E0C0E0F701EC0F2E
:1002B000FD1F6491662361F0D801ED91FC910190DE
:1002C000F081E02DC8010995892B11F02196EECF20
:1002D000CE01DF91CF911F910F91FF90EF90089584
:1002E000AF92BF92CF92DF92EF92FF920F931F9344
:1002F000CF93DF936C017B018B01040F151FEB0182
:100300005E01AE18BF08C017D10759F06991D60138
:10031000ED91FC910190F081E02DC6010995892BAA
:1003200079F7C501DF91CF911F910F91FF90EF9069
:10033000DF90CF90BF90AF900895FC01538D448D16
:10034000252F30E0842F90E0821B930B541710F080
:10035000CF96089501970895FC01918D828D98178D
:1003600061F0A28DAE0FBF2FB11D5D968C91928D65
:100370009F5F9F73928F90E008958FEF9FEF089596
:10038000FC01918D828D981731F0828DE80FF11D5F
:10039000858D90E008958FEF9FEF0895FC01918D7A
:1003A000228D892F90E0805C9F4F821B91098F7373
:1003B0009927089585E291E00E94CE0121E0892BE2
:1003C00009F420E0822F089580E090E0892B29F045
:1003D0000E94DA0181110C9400000895FC01A48DA3
:1003E000A80FB92FB11DA35ABF4F2C91848D90E057
:1003F00001968F739927848FA689B7892C93A0893A
:10040000B1898C91837080648C93938D848D9813C3
:1004100006C00288F389E02D80818F7D8083089556
:10042000EF92FF920F931F93CF93DF93EC0181E044
:10043000888F9B8D8C8D98131AC0E889F9898081EB
:1004400085FF15C09FB7F894EE89FF896083E8891E
:10045000F98980818370806480839FBF81E090E010
:10046000DF91CF911F910F91FF90EF900895F62E9D
:100470000B8D10E00F5F1F4F0F731127E02E8C8D37
:100480008E110CC00FB607FCFACFE889F98980817C
:1004900085FFF5CFCE010E94EE01F1CFEB8DEC0F81
:1004A000FD2FF11DE35AFF4FF0829FB7F8940B8F99
:1004B000EA89FB8980818062CFCFCF93DF93EC0103
:1004C000888D8823B9F0AA89BB89E889F9898C913C
:1004D00085FD03C0808186FD0DC00FB607FCF7CFF8
:1004E0008C9185FFF2CF808185FFEDCFCE010E94F8
:1004F000EE01E9CFDF91CF910895FB01019000203B
:10050000E9F73197AF01461B570BDC01ED91FC91E8
:100510000280F381E02D09944F925F926F927F9257
:10052000AF92BF92CF92DF92EF92FF920F931F9301
:10053000CF93DF93CDB7DEB7A1970FB6F894DEBFA8
:100540000FBECDBF5C016A017B01F7FE47C0DC0135
:10055000ED91FC910190F081E02D6DE209958C0107
:1005600022273327A9012C193D094E095F0919A239
:10057000FE01B1967F019AE0492E512C612C712C1D
:10058000CA01B901A30192010E94F408605DD7017C
:100590006E937D01211531054105510589F790E0E4
:1005A00080E0109721F0BD01C5010E947D02800FFF
:1005B000911FA1960FB6F894DEBF0FBECDBFDF919D
:1005C000CF911F910F91FF90EF90DF90CF90BF9050
:1005D000AF907F906F905F904F900895AB01960120
:1005E00019A28E010F5D1F4F8AE0C82ED12CE12C7D
:1005F000F12CCA01B901A70196010E94F408605DBF
:10060000F80162938F01211531054105510589F7E4
:1006100090E080E0309769F2BF01C5010E947D0241
:10062000C8CF0F931F93CF93DF93A091CD01B091CB
:10063000CE011097F1F0EB01682FED91FC9111972D
:100640000190F081E02DCD0109950091CD0110912F
:10065000CE01AE01DD0F660B770BC8010E948C0244
:1006600068E171E0C801DF91CF911F910F910C9467
:100670007D02DF91CF911F910F9108951F920F92EC
:100680000FB60F9211242F933F938F939F93AF93A5
:10069000BF9380911D0190911E01A0911F01B09107
:1006A000200130911C0123E0230F2D3758F50196CE
:1006B000A11DB11D20931C0180931D0190931E016B
:1006C000A0931F01B09320018091210190912201FC
:1006D000A0912301B09124010196A11DB11D809329
:1006E000210190932201A0932301B0932401BF9193
:1006F000AF919F918F913F912F910F900FBE0F90CF
:100700001F90189526E8230F0296A11DB11DD2CF88
:100710001F920F920FB60F9211242F933F934F9376
:100720005F936F937F938F939F93AF93BF93EF9359
:10073000FF9385E291E00E94EE01FF91EF91BF915E
:10074000AF919F918F917F916F915F914F913F9169
:100750002F910F900FBE0F901F9018951F920F9220
:100760000FB60F9211242F938F939F93EF93FF93C4
:10077000E0913501F09136018081E0913B01F091EB
:100780003C0182FD1BC0908180913E018F5F8F7381
:1007900020913F01821741F0E0913E01F0E0EB5DD6
:1007A000FE4F958F80933E01FF91EF919F918F9126
:1007B0002F910F900FBE0F901F9018958081F4CF4E
:1007C0001F920F920FB60F9211242F923F924F92C9
:1007D0005F926F927F928F929F92AF92BF92CF92D1
:1007E000DF92EF92FF920F931F932F933F934F93BC
:1007F0005F936F937F938F939F93AF93BF93EF9389
:10080000FF93CF93DF9300D000D0CDB7DEB7F8943D
:100810002091C2013091C3013A83298330E020E066
:1008200050E040E0A981BA8111968C91119784170C
:10083000150629F124F11296ED91FC91E20FF31FB8
:1008400080818E3008F08E508770806480937C00A9
:1008500080917A00806480937A0080917A0086FD8E
:10086000FCCF90917800809179008927982789277B
:10087000918780874F5F5F4F225C3F4FD3CF312CF2
:10088000212C10E000E050E6852E5AEE952EA12C8A
:10089000B12CE981FA8181818017110609F00CF4ED
:1008A000EEC122813381220D331D3C832B83D9017C
:1008B000D0964D905D906D907C90D397F901808D8E
:1008C000918DA28DB38D480E591E6A1E7B1E40AAC3
:1008D00051AA62AA73AA84899589A689B7897201E7
:1008E000E81AF90AF5AAE4AA868597850C979787EE
:1008F00086878685978597FDC1C086859785873FC2
:1009000099400CF0BEC0D9011E968D919C91EB814F
:10091000FC819787868780859185C2ACD3AC8C1586
:100920009D05CCF48285938565E070E00E94E00827
:10093000CB01880F991F680F791F6E157F055CF436
:100940002085318580AD91AD2817390724F4808545
:10095000918591AF80AFAB81BC8118968D919C91B0
:100960001997C816D9069CF418962D913C911997A1
:10097000D6968D919C91D7978217930744F4189639
:100980008D919C911997D7969C938E93D697BBEF98
:10099000EB16F1040CF4ABC0EB81FC8180859185F2
:1009A000C816D9060CF0A3C084858111A0C0828529
:1009B000938565E070E00E94E008CB01880F991FE5
:1009C000680F791F6E157F050CF091C021E0248718
:1009D00084899589A689B789F201E81BF90BAB8157
:1009E000BC811B96FC93EE931A97FD01448A558AAD
:1009F000668A778A85AD882371F015AE7C96CD0125
:100A0000C096AB81BC811A962D913C912193319374
:100A10008E179F07B1F7EB81FC8184AD8823A1F18C
:100A200014AE21E025AFAB81BC8112968D919C91D3
:100A3000139797FD08C01C962C9161E0211101C00D
:100A400060E00E94A900EB81FC81E480F580F7FC66
:100A5000ECC0868597856AE070E00E94E0087C83A0
:100A60006B838E2D0E948A002B813C81232B09F001
:100A7000ACC060E08E2D0E94A900D7C090E080E05D
:100A800046CF86EF99E043CFEB81FC817C964B818A
:100A90005C81425D5F4F30E020E0828193818193F1
:100AA0009193280F391F4E175F07B9F7AB81BC81AF
:100AB0001A968D919C911B979F969C938E939E97CF
:100AC000820F931F6AE070E00E94CC089B0150E007
:100AD00040E0C501B4010E941609EB81FC81378317
:100AE000268321E0258786EF99E097878687AB816B
:100AF000BC8118968D919C9119978C159D053CF59C
:100B00001C968C911C97882311F11C961C921C97A3
:100B1000D8964D915C91D997D6962D913C91D797C7
:100B2000241B350B53963C932E93529752968D91DE
:100B30009C9197FD019695958795840F951FEB8164
:100B4000FC8193AF82AF97AB86AB91AF80AFF5ECF2
:100B5000EF16F9E0FF060CF466CFAB81BC8150962E
:100B60008D919C915197DB969C938E93DA97E0E060
:100B7000F2E0D796FC93EE93D697D996FC93EE933A
:100B8000D89754964D925D926D927C925797E1E082
:100B9000DC96EC93DC97DD961C92DD971D961C92FB
:100BA0001D9717961C921E92169728E532E01B9609
:100BB0003C932E931A971C961C921C9784E690E007
:100BC00053969C938E9352972ECF8B819C818F3F0F
:100BD000910511F461E04ECFF701FF27E259FF4F75
:100BE000E491E33071F150F4E130D1F0E23019F1E9
:100BF000AB81BC81A038B1056CF73BCFE73069F120
:100C0000E830A1F1E430A1F7809180008062809308
:100C100080002B813C8130938B0020938A0005C09B
:100C200084B5806884BD9B8197BD0F5F1F4FBEE375
:100C30002B0E311C2ECE84B5806284BDAB81A8BD45
:100C4000F4CF80918000806880938000EB81FC81EC
:100C5000F0938900E0938800E8CF8091B00080682D
:100C60008093B0003B813093B300DFCF8091B00020
:100C700080628093B0008B818093B400D6CF81E0F6
:100C8000E981FA81808778940F900F900F900F90F0
:100C9000DF91CF91FF91EF91BF91AF919F918F9194
:100CA0007F916F915F914F913F912F911F910F9184
:100CB000FF90EF90DF90CF90BF90AF909F908F907C
:100CC0007F906F905F904F903F902F900F900FBE4E
:100CD0000F901F901895109228011092270188EE0E
:100CE00093E0A0E0B0E08093290190932A01A093C3
:100CF0002B01B0932C018AE091E090932601809320
:100D0000250185EC90E0909332018093310184ECD1
:100D100090E0909334018093330180EC90E09093C5
:100D200036018093350181EC90E0909338018093F7
:100D3000370182EC90E090933A018093390186EC80
:100D400090E090933C0180933B0110923E01109201
:100D50003F0110924001109241011092CE01109279
:100D6000CD0182E090E09093D0018093CF0184EC9C
:100D700091E09093C3018093C20181E08093C5010B
:100D80008EE390E00E943B09FC018EE090E09183AD
:100D900080838FEF9FEF938382839583848382E0A8
:100DA00090E0A0E0B0E0808F918FA28FB38FDF0141
:100DB0005C96CF01C0961D921D928A179B07D9F7AA
:100DC0001586178216828EEE92E0938782871486AC
:100DD00010AA11AA12AA13AA148A158A168A178AA7
:100DE00080E092E097AB86AB91AF80AF808991892C
:100DF00093AF82AF84E690E0938B828B81E084AFE7
:100E000015AE17861686F093C701E093C6010895C4
:100E1000789484B5826084BD84B5816084BD85B5D5
:100E2000826085BD85B5816085BD80916E008160E1
:100E300080936E0010928100809181008260809387
:100E40008100809181008160809381008091800089
:100E50008160809380008091B10084608093B100B4
:100E60008091B00081608093B00080917A008460AE
:100E700080937A0080917A00826080937A008091DA
:100E80007A00816080937A0080917A0080688093F4
:100E90007A001092C100E0913501F091360182E0B4
:100EA0008083E0913101F09132011082E0913301B1
:100EB000F091340180E1808310923D01E09139018D
:100EC000F0913A0186E08083E0913701F09138019A
:100ED000808180618083E0913701F09138018081C9
:100EE00088608083E0913701F091380180818068CB
:100EF0008083E0913701F091380180818F7D80837C
:100F0000E091C601F091C7018EE090E0918380836B
:100F10008DE090E09383828385E090E095838483E5
:100F200085E291E09093CE018093CD0182E090E044
:100F30009093D0018093CF01F89486E292E0918B58
:100F4000808B93AF82AF789410E000E0F12CE12C1D
:100F50008091C5018E151F0429F124F1C091C601AD
:100F6000D091C701C00FD11F8A819B8197FD06C018
:100F70000E948A0060E08A810E94A9008C819D8184
:100F800097FD0AC00E948A00CC818C2F0E948A00A3
:100F900060E08C2F0E94A9008FEFE81AF80A025C2B
:100FA0001F4FD6CF0E94F5006053784F8F4F9F4F51
:100FB0006093C8017093C9018093CA019093CB01DB
:100FC0001092CC011092C401109280001092820005
:100FD0008CE0809381008CE790E09093890080936F
:100FE000880082E080936F00789480E0E82E80E0B3
:100FF000F82E64E170E080E090E00E941A01809198
:10100000CD019091CE01009709F44EC00091C50129
:1010100010E0C091C601D091C7012091CF0130915D
:10102000D0012130310509F496C022303105E1F5B7
:10103000D12CC12C0130110509F06BC04E815F81AC
:10104000052E000C660B770B0E948C026CE670E09C
:101050008091CD019091CE010E944C014A855B8523
:10106000052E000C660B770B8091CD019091CE017F
:101070000E948C026AE670E08091CD019091CE01D1
:101080000E944C010091CD011091CE0148855985F7
:10109000052E000C660B770BC8010E948C0268E1DC
:1010A00071E0C8010E947D02E091C601F091C70184
:1010B000F8948585158678948823F9F08091CD0180
:1010C0009091CE01892BC9F08091CF019091D001F0
:1010D000019799F4C091C601D091C7018091C501D3
:1010E0006E817F81813009F050C082E40E9411033B
:1010F0006A857B8581E50E941103E114F10409F4FE
:1011000078CF0E94DA01882309F473CF0E9400008F
:1011100070CF8091CD019091CE01C016D106C4F45C
:10112000C114D10421F068E670E00E944C014885AA
:101130005985052E000C660B770B8091CD0190919F
:10114000CE010E948C028FEFC81AD80AEE96E1CF2A
:1011500068E171E0A7CFD12CC12C0130110531F429
:101160006885798583E50E9411039ECFC016D1065C
:101170000CF09ACF6885798581E68C0D0E94110369
:101180008FEFC81AD80AEE96F1CF81E40E941103BE
:101190006A857B858DE4AFCFAA1BBB1B51E107C0DD
:1011A000AA1FBB1FA617B70710F0A61BB70B881FF7
:1011B000991F5A95A9F780959095BC01CD01089586
:1011C00097FB072E16F4009407D077FD09D00E94F4
:1011D000CC0807FC05D03EF4909581959F4F08956B
:1011E000709561957F4F0895A1E21A2EAA1BBB1B33
:1011F000FD010DC0AA1FBB1FEE1FFF1FA217B307E3
:10120000E407F50720F0A21BB30BE40BF50B661FF8
:10121000771F881F991F1A9469F7609570958095BC
:1012200090959B01AC01BD01CF010895052E97FB60
:101230001EF400940E942D0957FD07D00E94F40867
:1012400007FC03D04EF40C942D0950954095309531
:1012500021953F4F4F4F5F4F089590958095709522
:1012600061957F4F8F4F9F4F0895EE0FFF1F0590A1
:10127000F491E02D09940F931F93CF93DF93823065
:10128000910510F482E090E0E091D301F091D40157
:1012900030E020E0B0E0A0E0309799F4211531056E
:1012A00009F44AC0281B390B24303105D8F58A814E
:1012B0009B816115710589F1FB0193838283FE0196
:1012C00011C0408151810281138148175907E0F014
:1012D0004817590799F4109761F012960C931297DA
:1012E00013961C933296CF01DF91CF911F910F91EE
:1012F00008950093D3011093D401F4CF2115310543
:1013000051F04217530738F0A901DB019A01BD01E2
:10131000DF01F801C1CFEF01F9CF9093D4018093A1
:10132000D301CDCFFE01E20FF31F819391932250A1
:10133000310939832883D7CF2091D1013091D2014F
:10134000232B41F420910201309103013093D2010B
:101350002093D10120910001309101012115310527
:1013600041F42DB73EB74091040150910501241B73
:10137000350BE091D101F091D201E217F307A0F40F
:101380002E1B3F0B2817390778F0AC014E5F5F4FDB
:101390002417350748F04E0F5F1F5093D20140933A
:1013A000D101819391939FCFF0E0E0E09CCFCF9368
:1013B000DF930097E9F0FC01329713821282A0912B
:1013C000D301B091D401ED0130E020E01097A1F4F9
:1013D00020813181820F931F2091D1013091D20160
:1013E0002817390709F061C0F093D201E093D101C9
:1013F000DF91CF910895EA01CE17DF07E8F54A8122
:101400005B819E0141155105B1F7E901FB83EA8338
:1014100049915991C40FD51FEC17FD0761F48081E4
:1014200091810296840F951FE901998388838281B7
:1014300093819B838A83F0E0E0E012968D919C91EA
:1014400013970097B9F52D913C911197CD01029614
:10145000820F931F2091D1013091D20128173907B3
:1014600039F6309751F51092D4011092D301B09310
:10147000D201A093D101BCCFD383C28340815181DB
:10148000840F951FC817D90761F44E5F5F4F88819D
:101490009981480F591F518340838A819B8193838F
:1014A00082832115310509F0B0CFF093D401E09388
:1014B000D3019ECFFD01DC01C0CF13821282D7CFB2
:0414C000F894FFCFCE
:1014C4000000D501800000000000100270019D01A1
:0C14D4005D02CE01AC01C0010D0A000059
:00000001FF
